{
  "contractName": "SimpleStorage",
  "abi": [
    {
      "anonymous": false,
      "inputs": [
        {
          "indexed": false,
          "internalType": "uint256",
          "name": "_val",
          "type": "uint256"
        }
      ],
      "name": "valueChanged",
      "type": "event"
    },
    {
      "inputs": [],
      "name": "read",
      "outputs": [
        {
          "internalType": "uint256",
          "name": "",
          "type": "uint256"
        }
      ],
      "stateMutability": "view",
      "type": "function",
      "constant": true
    },
    {
      "inputs": [
        {
          "internalType": "uint256",
          "name": "newValue",
          "type": "uint256"
        }
      ],
      "name": "write",
      "outputs": [],
      "stateMutability": "nonpayable",
      "type": "function"
    },
    {
      "inputs": [
        {
          "internalType": "string",
          "name": "_greet",
          "type": "string"
        }
      ],
      "name": "setGreet",
      "outputs": [],
      "stateMutability": "nonpayable",
      "type": "function"
    },
    {
      "inputs": [],
      "name": "greet",
      "outputs": [
        {
          "internalType": "string",
          "name": "",
          "type": "string"
        }
      ],
      "stateMutability": "view",
      "type": "function",
      "constant": true
    }
  ],
  "bytecode": "0x608060405234801561001057600080fd5b5061067e806100206000396000f3fe608060405234801561001057600080fd5b506004361061004c5760003560e01c80632f048afa1461005157806357de26a41461006d5780639698086b1461008b578063cfae3217146100a7575b600080fd5b61006b600480360381019061006691906102ec565b6100c5565b005b610075610106565b6040516100829190610328565b60405180910390f35b6100a560048036038101906100a09190610489565b61010f565b005b6100af61016d565b6040516100bc919061055a565b60405180910390f35b806000819055507fc0dd44d3f117c96295a84b2eb7b3f6abe929928d111b030bfb3568f5efa0ff1f816040516100fb9190610328565b60405180910390a150565b60008054905090565b6000815103610153576040517f08c379a000000000000000000000000000000000000000000000000000000000815260040161014a906105c8565b60405180910390fd5b80600190805190602001906101699291906101ff565b5050565b60606001805461017c90610617565b80601f01602080910402602001604051908101604052809291908181526020018280546101a890610617565b80156101f55780601f106101ca576101008083540402835291602001916101f5565b820191906000526020600020905b8154815290600101906020018083116101d857829003601f168201915b5050505050905090565b82805461020b90610617565b90600052602060002090601f01602090048101928261022d5760008555610274565b82601f1061024657805160ff1916838001178555610274565b82800160010185558215610274579182015b82811115610273578251825591602001919060010190610258565b5b5090506102819190610285565b5090565b5b8082111561029e576000816000905550600101610286565b5090565b6000604051905090565b600080fd5b600080fd5b6000819050919050565b6102c9816102b6565b81146102d457600080fd5b50565b6000813590506102e6816102c0565b92915050565b600060208284031215610302576103016102ac565b5b6000610310848285016102d7565b91505092915050565b610322816102b6565b82525050565b600060208201905061033d6000830184610319565b92915050565b600080fd5b600080fd5b6000601f19601f8301169050919050565b7f4e487b7100000000000000000000000000000000000000000000000000000000600052604160045260246000fd5b6103968261034d565b810181811067ffffffffffffffff821117156103b5576103b461035e565b5b80604052505050565b60006103c86102a2565b90506103d4828261038d565b919050565b600067ffffffffffffffff8211156103f4576103f361035e565b5b6103fd8261034d565b9050602081019050919050565b82818337600083830152505050565b600061042c610427846103d9565b6103be565b90508281526020810184848401111561044857610447610348565b5b61045384828561040a565b509392505050565b600082601f8301126104705761046f610343565b5b8135610480848260208601610419565b91505092915050565b60006020828403121561049f5761049e6102ac565b5b600082013567ffffffffffffffff8111156104bd576104bc6102b1565b5b6104c98482850161045b565b91505092915050565b600081519050919050565b600082825260208201905092915050565b60005b8381101561050c5780820151818401526020810190506104f1565b8381111561051b576000848401525b50505050565b600061052c826104d2565b61053681856104dd565b93506105468185602086016104ee565b61054f8161034d565b840191505092915050565b600060208201905081810360008301526105748184610521565b905092915050565b7f537472696e672073686f756c64206e6f74206265204e554c4c00000000000000600082015250565b60006105b26019836104dd565b91506105bd8261057c565b602082019050919050565b600060208201905081810360008301526105e1816105a5565b9050919050565b7f4e487b7100000000000000000000000000000000000000000000000000000000600052602260045260246000fd5b6000600282049050600182168061062f57607f821691505b602082108103610642576106416105e8565b5b5091905056fea264697066735822122025613d8988ebcb1d0fd376307454548d68685c166df46bd07cca768bcc850f9f64736f6c634300080e0033",
  "immutableReferences": {},
  "source": "// SPDX-License-Identifier: MIT\npragma solidity >=0.4.22 <0.9.0;\n\ncontract SimpleStorage {\n  uint256 value;\n  string greetings;\n\n  event valueChanged(uint _val);\n\n  function read() public view returns (uint256) {\n    return value;\n  }\n\n  function write(uint256 newValue) public {\n    value = newValue;\n    emit valueChanged(newValue);\n  }\n\n  function setGreet(string memory _greet) public {\n    require( bytes(_greet).length != 0,\"String should not be NULL\");\n    greetings = _greet;\n  }\n\n  function greet() public view returns (string memory) {\n    return greetings;\n  }\n}\n",
  "sourcePath": "/Users/eric/Documents/projects/Crypto/09.Alyra/03.FIRMWARE/simple-storage-react/truffle/contracts/SimpleStorage.sol",
  "compiler": {
    "name": "solc",
    "version": "0.8.14+commit.80d49f37.Emscripten.clang"
  },
  "schemaVersion": "3.4.10",
  "updatedAt": "2022-11-17T21:57:12.652Z",
  "networkType": "ethereum",
  "devdoc": {
    "kind": "dev",
    "methods": {},
    "version": 1
  },
  "userdoc": {
    "kind": "user",
    "methods": {},
    "version": 1
  }
}